{
  "contractName": "Purchase",
  "abi": [
    {
      "constant": true,
      "inputs": [],
      "name": "seller",
      "outputs": [
        {
          "name": "",
          "type": "address"
        }
      ],
      "payable": false,
      "stateMutability": "view",
      "type": "function"
    },
    {
      "constant": true,
      "inputs": [],
      "name": "value",
      "outputs": [
        {
          "name": "",
          "type": "uint256"
        }
      ],
      "payable": false,
      "stateMutability": "view",
      "type": "function"
    },
    {
      "constant": true,
      "inputs": [],
      "name": "buyer",
      "outputs": [
        {
          "name": "",
          "type": "address"
        }
      ],
      "payable": false,
      "stateMutability": "view",
      "type": "function"
    },
    {
      "constant": true,
      "inputs": [],
      "name": "state",
      "outputs": [
        {
          "name": "",
          "type": "uint8"
        }
      ],
      "payable": false,
      "stateMutability": "view",
      "type": "function"
    },
    {
      "inputs": [],
      "payable": true,
      "stateMutability": "payable",
      "type": "constructor"
    },
    {
      "anonymous": false,
      "inputs": [],
      "name": "Aborted",
      "type": "event"
    },
    {
      "anonymous": false,
      "inputs": [],
      "name": "PurchaseConfirmed",
      "type": "event"
    },
    {
      "anonymous": false,
      "inputs": [],
      "name": "ItemReceived",
      "type": "event"
    },
    {
      "constant": false,
      "inputs": [],
      "name": "abort",
      "outputs": [],
      "payable": false,
      "stateMutability": "nonpayable",
      "type": "function"
    },
    {
      "constant": false,
      "inputs": [],
      "name": "confirmPurchase",
      "outputs": [],
      "payable": true,
      "stateMutability": "payable",
      "type": "function"
    },
    {
      "constant": false,
      "inputs": [],
      "name": "confirmReceived",
      "outputs": [],
      "payable": false,
      "stateMutability": "nonpayable",
      "type": "function"
    }
  ],
  "bytecode": "0x608060405233600160006101000a81548173ffffffffffffffffffffffffffffffffffffffff021916908373ffffffffffffffffffffffffffffffffffffffff16021790555060023481151561005157fe5b04600081905550346000546002021415156100d4576040517f08c379a00000000000000000000000000000000000000000000000000000000081526004018080602001828103825260158152602001807f56616c75652068617320746f206265206576656e2e000000000000000000000081525060200191505060405180910390fd5b61087f806100e36000396000f300608060405260043610610083576000357c0100000000000000000000000000000000000000000000000000000000900463ffffffff16806308551a531461008857806335a063b4146100df5780633fa4f245146100f65780637150d8ae1461012157806373fac6f014610178578063c19d93fb1461018f578063d6960697146101c8575b600080fd5b34801561009457600080fd5b5061009d6101d2565b604051808273ffffffffffffffffffffffffffffffffffffffff1673ffffffffffffffffffffffffffffffffffffffff16815260200191505060405180910390f35b3480156100eb57600080fd5b506100f46101f8565b005b34801561010257600080fd5b5061010b61042d565b6040518082815260200191505060405180910390f35b34801561012d57600080fd5b50610136610433565b604051808273ffffffffffffffffffffffffffffffffffffffff1673ffffffffffffffffffffffffffffffffffffffff16815260200191505060405180910390f35b34801561018457600080fd5b5061018d610459565b005b34801561019b57600080fd5b506101a46106f9565b604051808260028111156101b457fe5b60ff16815260200191505060405180910390f35b6101d061070c565b005b600160009054906101000a900473ffffffffffffffffffffffffffffffffffffffff1681565b600160009054906101000a900473ffffffffffffffffffffffffffffffffffffffff1673ffffffffffffffffffffffffffffffffffffffff163373ffffffffffffffffffffffffffffffffffffffff161415156102bd576040517f08c379a000000000000000000000000000000000000000000000000000000000815260040180806020018281038252601a8152602001807f4f6e6c792073656c6c65722063616e2063616c6c20746869732e00000000000081525060200191505060405180910390fd5b60008060028111156102cb57fe5b600260149054906101000a900460ff1660028111156102e657fe5b14151561035b576040517f08c379a000000000000000000000000000000000000000000000000000000000815260040180806020018281038252600e8152602001807f496e76616c69642073746174652e00000000000000000000000000000000000081525060200191505060405180910390fd5b7f72c874aeff0b183a56e2b79c71b46e1aed4dee5e09862134b8821ba2fddbf8bf60405160405180910390a160028060146101000a81548160ff021916908360028111156103a557fe5b0217905550600160009054906101000a900473ffffffffffffffffffffffffffffffffffffffff1673ffffffffffffffffffffffffffffffffffffffff166108fc3073ffffffffffffffffffffffffffffffffffffffff16319081150290604051600060405180830381858888f19350505050158015610429573d6000803e3d6000fd5b5050565b60005481565b600260009054906101000a900473ffffffffffffffffffffffffffffffffffffffff1681565b600260009054906101000a900473ffffffffffffffffffffffffffffffffffffffff1673ffffffffffffffffffffffffffffffffffffffff163373ffffffffffffffffffffffffffffffffffffffff1614151561051e576040517f08c379a00000000000000000000000000000000000000000000000000000000081526004018080602001828103825260198152602001807f4f6e6c792062757965722063616e2063616c6c20746869732e0000000000000081525060200191505060405180910390fd5b600180600281111561052c57fe5b600260149054906101000a900460ff16600281111561054757fe5b1415156105bc576040517f08c379a000000000000000000000000000000000000000000000000000000000815260040180806020018281038252600e8152602001807f496e76616c69642073746174652e00000000000000000000000000000000000081525060200191505060405180910390fd5b7fe89152acd703c9d8c7d28829d443260b411454d45394e7995815140c8cbcbcf760405160405180910390a160028060146101000a81548160ff0219169083600281111561060657fe5b0217905550600260009054906101000a900473ffffffffffffffffffffffffffffffffffffffff1673ffffffffffffffffffffffffffffffffffffffff166108fc6000549081150290604051600060405180830381858888f19350505050158015610675573d6000803e3d6000fd5b50600160009054906101000a900473ffffffffffffffffffffffffffffffffffffffff1673ffffffffffffffffffffffffffffffffffffffff166108fc3073ffffffffffffffffffffffffffffffffffffffff16319081150290604051600060405180830381858888f193505050501580156106f5573d6000803e3d6000fd5b5050565b600260149054906101000a900460ff1681565b600080600281111561071a57fe5b600260149054906101000a900460ff16600281111561073557fe5b1415156107aa576040517f08c379a000000000000000000000000000000000000000000000000000000000815260040180806020018281038252600e8152602001807f496e76616c69642073746174652e00000000000000000000000000000000000081525060200191505060405180910390fd5b60005460020234148015156107be57600080fd5b7fd5d55c8a68912e9a110618df8d5e2e83b8d83211c57a8ddd1203df92885dc88160405160405180910390a133600260006101000a81548173ffffffffffffffffffffffffffffffffffffffff021916908373ffffffffffffffffffffffffffffffffffffffff1602179055506001600260146101000a81548160ff0219169083600281111561084a57fe5b021790555050505600a165627a7a7230582025439ebabac7d995097fb318723df80cf16744d0cc97d9ea46553f2827182bc80029",
  "source": "pragma solidity >0.4.22;\r\n\r\ncontract Purchase {\r\n    uint public value;\r\n    address public seller;\r\n    address public buyer;\r\n    enum State { Created, Locked, Inactive }\r\n    State public state;\r\n\r\n    // Ensure that `msg.value` is an even number.\r\n    // Division will truncate if it is an odd number.\r\n    // Check via multiplication that it wasn't an odd number.\r\n    constructor() public payable {\r\n        seller = msg.sender;\r\n        value = msg.value / 2;\r\n        require((2 * value) == msg.value, \"Value has to be even.\");\r\n    }\r\n\r\n    modifier condition(bool _condition) {\r\n        require(_condition);\r\n        _;\r\n    }\r\n\r\n    modifier onlyBuyer() {\r\n        require(\r\n            msg.sender == buyer,\r\n            \"Only buyer can call this.\"\r\n        );\r\n        _;\r\n    }\r\n\r\n    modifier onlySeller() {\r\n        require(\r\n            msg.sender == seller,\r\n            \"Only seller can call this.\"\r\n        );\r\n        _;\r\n    }\r\n\r\n    modifier inState(State _state) {\r\n        require(\r\n            state == _state,\r\n            \"Invalid state.\"\r\n        );\r\n        _;\r\n    }\r\n\r\n    event Aborted();\r\n    event PurchaseConfirmed();\r\n    event ItemReceived();\r\n\r\n    /// Abort the purchase and reclaim the ether.\r\n    /// Can only be called by the seller before\r\n    /// the contract is locked.\r\n    function abort()\r\n        public\r\n        onlySeller\r\n        inState(State.Created)\r\n    {\r\n        emit Aborted();\r\n        state = State.Inactive;\r\n        seller.transfer(address(this).balance);\r\n    }\r\n\r\n    /// Confirm the purchase as buyer.\r\n    /// Transaction has to include `2 * value` ether.\r\n    /// The ether will be locked until confirmReceived\r\n    /// is called.\r\n    function confirmPurchase()\r\n        public\r\n        inState(State.Created)\r\n        condition(msg.value == (2 * value))\r\n        payable\r\n    {\r\n        emit PurchaseConfirmed();\r\n        buyer = msg.sender;\r\n        state = State.Locked;\r\n    }\r\n\r\n    /// Confirm that you (the buyer) received the item.\r\n    /// This will release the locked ether.\r\n    function confirmReceived()\r\n        public\r\n        onlyBuyer\r\n        inState(State.Locked)\r\n    {\r\n        emit ItemReceived();\r\n        // It is important to change the state first because\r\n        // otherwise, the contracts called using `send` below\r\n        // can call in again here.\r\n        state = State.Inactive;\r\n\r\n        // NOTE: This actually allows both the buyer and the seller to\r\n        // block the refund - the withdraw pattern should be used.\r\n\r\n        buyer.transfer(value);\r\n        seller.transfer(address(this).balance);\r\n    }\r\n}",
  "sourcePath": "C:\\Users\\SAM FISH\\Desktop\\DAYO\\SAFE REMOTE PURCHASE\\my-first-smart-contract\\contracts\\SafeRemotePurchase.sol",
  "compiler": {
    "name": "solc",
    "version": "0.4.24+commit.e67f0147.Emscripten.clang"
  },
  "schemaVersion": "2.0.1",
  "updatedAt": "2018-12-18T16:35:50.514Z"
}